{
  "contractName": "Arenda",
  "abi": [
    {
      "inputs": [],
      "payable": false,
      "stateMutability": "nonpayable",
      "type": "constructor"
    },
    {
      "constant": true,
      "inputs": [],
      "name": "get_role",
      "outputs": [
        {
          "name": "",
          "type": "bool"
        }
      ],
      "payable": false,
      "stateMutability": "view",
      "type": "function"
    },
    {
      "constant": false,
      "inputs": [
        {
          "name": "adres",
          "type": "address"
        },
        {
          "name": "role",
          "type": "bool"
        }
      ],
      "name": "cmena_role",
      "outputs": [],
      "payable": false,
      "stateMutability": "nonpayable",
      "type": "function"
    },
    {
      "constant": false,
      "inputs": [
        {
          "name": "adres",
          "type": "address"
        }
      ],
      "name": "delete_admin",
      "outputs": [],
      "payable": false,
      "stateMutability": "nonpayable",
      "type": "function"
    },
    {
      "constant": true,
      "inputs": [
        {
          "name": "id_arend",
          "type": "uint256"
        }
      ],
      "name": "get_arend_number",
      "outputs": [
        {
          "name": "",
          "type": "uint256"
        },
        {
          "name": "",
          "type": "uint256"
        },
        {
          "name": "",
          "type": "address"
        },
        {
          "name": "",
          "type": "address"
        },
        {
          "name": "",
          "type": "uint256"
        },
        {
          "name": "",
          "type": "uint256"
        },
        {
          "name": "",
          "type": "bool"
        }
      ],
      "payable": false,
      "stateMutability": "view",
      "type": "function"
    },
    {
      "constant": true,
      "inputs": [
        {
          "name": "estate_id",
          "type": "uint256"
        }
      ],
      "name": "get_estates_number",
      "outputs": [
        {
          "name": "",
          "type": "uint256"
        },
        {
          "name": "",
          "type": "address"
        },
        {
          "name": "",
          "type": "uint256"
        },
        {
          "name": "",
          "type": "uint256"
        }
      ],
      "payable": false,
      "stateMutability": "view",
      "type": "function"
    },
    {
      "constant": true,
      "inputs": [],
      "name": "get_estates",
      "outputs": [
        {
          "name": "",
          "type": "uint256"
        }
      ],
      "payable": false,
      "stateMutability": "view",
      "type": "function"
    },
    {
      "constant": true,
      "inputs": [],
      "name": "get_arends",
      "outputs": [
        {
          "name": "",
          "type": "uint256"
        }
      ],
      "payable": false,
      "stateMutability": "view",
      "type": "function"
    },
    {
      "constant": true,
      "inputs": [],
      "name": "get_estates_address",
      "outputs": [
        {
          "name": "",
          "type": "uint256[]"
        }
      ],
      "payable": false,
      "stateMutability": "view",
      "type": "function"
    },
    {
      "constant": false,
      "inputs": [
        {
          "name": "owner",
          "type": "address"
        },
        {
          "name": "square",
          "type": "uint256"
        },
        {
          "name": "use_age",
          "type": "uint256"
        }
      ],
      "name": "create_estate",
      "outputs": [],
      "payable": false,
      "stateMutability": "nonpayable",
      "type": "function"
    },
    {
      "constant": false,
      "inputs": [
        {
          "name": "estate_id",
          "type": "uint256"
        },
        {
          "name": "sale",
          "type": "uint256"
        },
        {
          "name": "time",
          "type": "uint256"
        }
      ],
      "name": "create_arend",
      "outputs": [],
      "payable": false,
      "stateMutability": "nonpayable",
      "type": "function"
    },
    {
      "constant": false,
      "inputs": [
        {
          "name": "id_arend",
          "type": "uint256"
        }
      ],
      "name": "take_arend",
      "outputs": [],
      "payable": true,
      "stateMutability": "payable",
      "type": "function"
    },
    {
      "constant": false,
      "inputs": [
        {
          "name": "id_arend",
          "type": "uint256"
        }
      ],
      "name": "arend_accept",
      "outputs": [],
      "payable": true,
      "stateMutability": "payable",
      "type": "function"
    },
    {
      "constant": false,
      "inputs": [
        {
          "name": "arend_id",
          "type": "uint256"
        }
      ],
      "name": "arend_cancel_owner",
      "outputs": [],
      "payable": false,
      "stateMutability": "nonpayable",
      "type": "function"
    },
    {
      "constant": false,
      "inputs": [
        {
          "name": "arend_id",
          "type": "uint256"
        }
      ],
      "name": "arend_cancel_arendator",
      "outputs": [],
      "payable": false,
      "stateMutability": "nonpayable",
      "type": "function"
    }
  ],
  "bytecode": "0x608060405260008060006101000a81548173ffffffffffffffffffffffffffffffffffffffff021916908373ffffffffffffffffffffffffffffffffffffffff16021790555034801561005157600080fd5b50600060046000737506ed6e94ccee459516796ba9238e451fee4da073ffffffffffffffffffffffffffffffffffffffff1673ffffffffffffffffffffffffffffffffffffffff16815260200190815260200160002060006101000a81548160ff02191690831515021790555060016004600073e2a7d77fcef93b972c80ee062bc9ac2d7366280073ffffffffffffffffffffffffffffffffffffffff1673ffffffffffffffffffffffffffffffffffffffff16815260200190815260200160002060006101000a81548160ff02191690831515021790555060016004600073310721b3d4693d2314f10a1f86f9046b5901815173ffffffffffffffffffffffffffffffffffffffff1673ffffffffffffffffffffffffffffffffffffffff16815260200190815260200160002060006101000a81548160ff02191690831515021790555060016004600073e2a7d77fcef93b972c80ee062bc9ac2d7366280073ffffffffffffffffffffffffffffffffffffffff1673ffffffffffffffffffffffffffffffffffffffff16815260200190815260200160002060006101000a81548160ff021916908315150217905550600060046000735cce5eff16313e8a341c99390043e82f9621154173ffffffffffffffffffffffffffffffffffffffff1673ffffffffffffffffffffffffffffffffffffffff16815260200190815260200160002060006101000a81548160ff0219169083151502179055506000600460007360572432e2d40e2a6958cfe7a70606eff1b4ec1773ffffffffffffffffffffffffffffffffffffffff1673ffffffffffffffffffffffffffffffffffffffff16815260200190815260200160002060006101000a81548160ff0219169083151502179055506000600460007356765ed20d8ed10c4435f816603fa5cebd7008a573ffffffffffffffffffffffffffffffffffffffff1673ffffffffffffffffffffffffffffffffffffffff16815260200190815260200160002060006101000a81548160ff02191690831515021790555060006004600073f127a5d9f21f3ded2efe63ed9c6ebe2c0e3f877173ffffffffffffffffffffffffffffffffffffffff1673ffffffffffffffffffffffffffffffffffffffff16815260200190815260200160002060006101000a81548160ff02191690831515021790555060026080604051908101604052806002805490508152602001735cce5eff16313e8a341c99390043e82f9621154173ffffffffffffffffffffffffffffffffffffffff168152602001604681526020016005815250908060018154018082558091505090600182039060005260206000209060040201600090919290919091506000820151816000015560208201518160010160006101000a81548173ffffffffffffffffffffffffffffffffffffffff021916908373ffffffffffffffffffffffffffffffffffffffff160217905550604082015181600201556060820151816003015550505060056000735cce5eff16313e8a341c99390043e82f9621154173ffffffffffffffffffffffffffffffffffffffff1673ffffffffffffffffffffffffffffffffffffffff1681526020019081526020016000206001600280549050039080600181540180825580915050906001820390600052602060002001600090919290919091505550600260806040519081016040528060028054905081526020017360572432e2d40e2a6958cfe7a70606eff1b4ec1773ffffffffffffffffffffffffffffffffffffffff168152602001603c81526020016008815250908060018154018082558091505090600182039060005260206000209060040201600090919290919091506000820151816000015560208201518160010160006101000a81548173ffffffffffffffffffffffffffffffffffffffff021916908373ffffffffffffffffffffffffffffffffffffffff1602179055506040820151816002015560608201518160030155505050600560007360572432e2d40e2a6958cfe7a70606eff1b4ec1773ffffffffffffffffffffffffffffffffffffffff1673ffffffffffffffffffffffffffffffffffffffff1681526020019081526020016000206001600280549050039080600181540180825580915050906001820390600052602060002001600090919290919091505550600260806040519081016040528060028054905081526020017360572432e2d40e2a6958cfe7a70606eff1b4ec1773ffffffffffffffffffffffffffffffffffffffff16815260200160e681526020016003815250908060018154018082558091505090600182039060005260206000209060040201600090919290919091506000820151816000015560208201518160010160006101000a81548173ffffffffffffffffffffffffffffffffffffffff021916908373ffffffffffffffffffffffffffffffffffffffff1602179055506040820151816002015560608201518160030155505050600560007360572432e2d40e2a6958cfe7a70606eff1b4ec1773ffffffffffffffffffffffffffffffffffffffff1673ffffffffffffffffffffffffffffffffffffffff1681526020019081526020016000206001600280549050039080600181540180825580915050906001820390600052602060002001600090919290919091505550600160408051908101604052806001805490508152602001737506ed6e94ccee459516796ba9238e451fee4da073ffffffffffffffffffffffffffffffffffffffff16815250908060018154018082558091505090600182039060005260206000209060020201600090919290919091506000820151816000015560208201518160010160006101000a81548173ffffffffffffffffffffffffffffffffffffffff021916908373ffffffffffffffffffffffffffffffffffffffff16021790555050505060016040805190810160405280600180549050815260200173e2a7d77fcef93b972c80ee062bc9ac2d7366280073ffffffffffffffffffffffffffffffffffffffff16815250908060018154018082558091505090600182039060005260206000209060020201600090919290919091506000820151816000015560208201518160010160006101000a81548173ffffffffffffffffffffffffffffffffffffffff021916908373ffffffffffffffffffffffffffffffffffffffff16021790555050505060016040805190810160405280600180549050815260200173310721b3d4693d2314f10a1f86f9046b5901815173ffffffffffffffffffffffffffffffffffffffff16815250908060018154018082558091505090600182039060005260206000209060020201600090919290919091506000820151816000015560208201518160010160006101000a81548173ffffffffffffffffffffffffffffffffffffffff021916908373ffffffffffffffffffffffffffffffffffffffff16021790555050505060016040805190810160405280600180549050815260200173e2a7d77fcef93b972c80ee062bc9ac2d7366280073ffffffffffffffffffffffffffffffffffffffff16815250908060018154018082558091505090600182039060005260206000209060020201600090919290919091506000820151816000015560208201518160010160006101000a81548173ffffffffffffffffffffffffffffffffffffffff021916908373ffffffffffffffffffffffffffffffffffffffff160217905550505050600160408051908101604052806001805490508152602001735cce5eff16313e8a341c99390043e82f9621154173ffffffffffffffffffffffffffffffffffffffff16815250908060018154018082558091505090600182039060005260206000209060020201600090919290919091506000820151816000015560208201518160010160006101000a81548173ffffffffffffffffffffffffffffffffffffffff021916908373ffffffffffffffffffffffffffffffffffffffff1602179055505050506001604080519081016040528060018054905081526020017360572432e2d40e2a6958cfe7a70606eff1b4ec1773ffffffffffffffffffffffffffffffffffffffff16815250908060018154018082558091505090600182039060005260206000209060020201600090919290919091506000820151816000015560208201518160010160006101000a81548173ffffffffffffffffffffffffffffffffffffffff021916908373ffffffffffffffffffffffffffffffffffffffff1602179055505050506001604080519081016040528060018054905081526020017356765ed20d8ed10c4435f816603fa5cebd7008a573ffffffffffffffffffffffffffffffffffffffff16815250908060018154018082558091505090600182039060005260206000209060020201600090919290919091506000820151816000015560208201518160010160006101000a81548173ffffffffffffffffffffffffffffffffffffffff021916908373ffffffffffffffffffffffffffffffffffffffff16021790555050505060016040805190810160405280600180549050815260200173f127a5d9f21f3ded2efe63ed9c6ebe2c0e3f877173ffffffffffffffffffffffffffffffffffffffff16815250908060018154018082558091505090600182039060005260206000209060020201600090919290919091506000820151816000015560208201518160010160006101000a81548173ffffffffffffffffffffffffffffffffffffffff021916908373ffffffffffffffffffffffffffffffffffffffff16021790555050505060018054905060066000737506ed6e94ccee459516796ba9238e451fee4da073ffffffffffffffffffffffffffffffffffffffff1673ffffffffffffffffffffffffffffffffffffffff168152602001908152602001600020819055506001805490506006600073e2a7d77fcef93b972c80ee062bc9ac2d7366280073ffffffffffffffffffffffffffffffffffffffff1673ffffffffffffffffffffffffffffffffffffffff168152602001908152602001600020819055506001805490506006600073310721b3d4693d2314f10a1f86f9046b5901815173ffffffffffffffffffffffffffffffffffffffff1673ffffffffffffffffffffffffffffffffffffffff168152602001908152602001600020819055506001805490506006600073e2a7d77fcef93b972c80ee062bc9ac2d7366280073ffffffffffffffffffffffffffffffffffffffff1673ffffffffffffffffffffffffffffffffffffffff1681526020019081526020016000208190555060018054905060066000735cce5eff16313e8a341c99390043e82f9621154173ffffffffffffffffffffffffffffffffffffffff1673ffffffffffffffffffffffffffffffffffffffff16815260200190815260200160002081905550600180549050600660007360572432e2d40e2a6958cfe7a70606eff1b4ec1773ffffffffffffffffffffffffffffffffffffffff1673ffffffffffffffffffffffffffffffffffffffff16815260200190815260200160002081905550600180549050600660007356765ed20d8ed10c4435f816603fa5cebd7008a573ffffffffffffffffffffffffffffffffffffffff1673ffffffffffffffffffffffffffffffffffffffff168152602001908152602001600020819055506001805490506006600073f127a5d9f21f3ded2efe63ed9c6ebe2c0e3f877173ffffffffffffffffffffffffffffffffffffffff1673ffffffffffffffffffffffffffffffffffffffff16815260200190815260200160002081905550611b5a806111186000396000f3fe6080604052600436106100ca576000357c0100000000000000000000000000000000000000000000000000000000900480631c781cbc146100cf57806327ae64d1146100fa57806328288c9f1461018a578063292028bc146101b557806329a3868b1461028a5780633a717a09146102d9578063458fd7cc14610308578063599a3168146103595780637733d3c514610387578063960be302146103ec578063b9e661ee14610458578063c24eb39e14610493578063cefaba1e146104ce578063f7d28212146104fc575b600080fd5b3480156100db57600080fd5b506100e4610559565b6040518082815260200191505060405180910390f35b34801561010657600080fd5b506101336004803603602081101561011d57600080fd5b8101908080359060200190929190505050610566565b604051808581526020018473ffffffffffffffffffffffffffffffffffffffff1673ffffffffffffffffffffffffffffffffffffffff16815260200183815260200182815260200194505050505060405180910390f35b34801561019657600080fd5b5061019f61061f565b6040518082815260200191505060405180910390f35b3480156101c157600080fd5b506101ee600480360360208110156101d857600080fd5b810190808035906020019092919050505061062c565b604051808881526020018781526020018673ffffffffffffffffffffffffffffffffffffffff1673ffffffffffffffffffffffffffffffffffffffff1681526020018573ffffffffffffffffffffffffffffffffffffffff1673ffffffffffffffffffffffffffffffffffffffff1681526020018481526020018381526020018215151515815260200197505050505050505060405180910390f35b34801561029657600080fd5b506102d7600480360360608110156102ad57600080fd5b8101908080359060200190929190803590602001909291908035906020019092919050505061078a565b005b3480156102e557600080fd5b506102ee610b1f565b604051808215151515815260200191505060405180910390f35b34801561031457600080fd5b506103576004803603602081101561032b57600080fd5b81019080803573ffffffffffffffffffffffffffffffffffffffff169060200190929190505050610b73565b005b6103856004803603602081101561036f57600080fd5b8101908080359060200190929190505050610cbc565b005b34801561039357600080fd5b506103ea600480360360608110156103aa57600080fd5b81019080803573ffffffffffffffffffffffffffffffffffffffff1690602001909291908035906020019092919080359060200190929190505050610ece565b005b3480156103f857600080fd5b50610401611093565b6040518080602001828103825283818151815260200191508051906020019060200280838360005b83811015610444578082015181840152602081019050610429565b505050509050019250505060405180910390f35b34801561046457600080fd5b506104916004803603602081101561047b57600080fd5b8101908080359060200190929190505050611128565b005b34801561049f57600080fd5b506104cc600480360360208110156104b657600080fd5b8101908080359060200190929190505050611404565b005b6104fa600480360360208110156104e457600080fd5b810190808035906020019092919050505061173f565b005b34801561050857600080fd5b506105576004803603604081101561051f57600080fd5b81019080803573ffffffffffffffffffffffffffffffffffffffff169060200190929190803515159060200190929190505050611ad3565b005b6000600380549050905090565b60008060008060028581548110151561057b57fe5b90600052602060002090600402016000015460028681548110151561059c57fe5b906000526020600020906004020160010160009054906101000a900473ffffffffffffffffffffffffffffffffffffffff166002878154811015156105dd57fe5b9060005260206000209060040201600201546002888154811015156105fe57fe5b90600052602060002090600402016003015493509350935093509193509193565b6000600280549050905090565b600080600080600080600060038881548110151561064657fe5b90600052602060002090600702016000015460038981548110151561066757fe5b90600052602060002090600702016001015460038a81548110151561068857fe5b906000526020600020906007020160020160009054906101000a900473ffffffffffffffffffffffffffffffffffffffff1660038b8154811015156106c957fe5b906000526020600020906007020160030160009054906101000a900473ffffffffffffffffffffffffffffffffffffffff1660038c81548110151561070a57fe5b90600052602060002090600702016004015460038d81548110151561072b57fe5b90600052602060002090600702016005015460038e81548110151561074c57fe5b906000526020600020906007020160060160009054906101000a900460ff168494508393509650965096509650965096509650919395979092949650565b600015156008600085815260200190815260200160002060009054906101000a900460ff16151514151561084c576040517f08c379a00000000000000000000000000000000000000000000000000000000081526004018080602001828103825260288152602001807fd09ad0b2d0b0d180d182d0b8d180d0b020d183d0b6d0b520d0b220d0b0d180d081526020017fb5d0bdd0b4d0b52100000000000000000000000000000000000000000000000081525060400191505060405180910390fd5b60028381548110151561085b57fe5b906000526020600020906004020160010160009054906101000a900473ffffffffffffffffffffffffffffffffffffffff1673ffffffffffffffffffffffffffffffffffffffff163373ffffffffffffffffffffffffffffffffffffffff16141515610955576040517f08c379a00000000000000000000000000000000000000000000000000000000081526004018080602001828103825260218152602001807fd092d18b20d0bdd0b520d181d0bed0b1d181d182d0b2d0b5d0bdd0bdd0b8d0ba81526020017f210000000000000000000000000000000000000000000000000000000000000081525060400191505060405180910390fd5b600360e06040519081016040528085815260200160038054905081526020013373ffffffffffffffffffffffffffffffffffffffff1681526020016000809054906101000a900473ffffffffffffffffffffffffffffffffffffffff1673ffffffffffffffffffffffffffffffffffffffff168152602001670de0b6b3a7640000850281526020018381526020016000151581525090806001815401808255809150509060018203906000526020600020906007020160009091929091909150600082015181600001556020820151816001015560408201518160020160006101000a81548173ffffffffffffffffffffffffffffffffffffffff021916908373ffffffffffffffffffffffffffffffffffffffff16021790555060608201518160030160006101000a81548173ffffffffffffffffffffffffffffffffffffffff021916908373ffffffffffffffffffffffffffffffffffffffff1602179055506080820151816004015560a0820151816005015560c08201518160060160006101000a81548160ff02191690831515021790555050505060016008600085815260200190815260200160002060006101000a81548160ff021916908315150217905550505050565b6000600460003373ffffffffffffffffffffffffffffffffffffffff1673ffffffffffffffffffffffffffffffffffffffff16815260200190815260200160002060009054906101000a900460ff16905090565b60011515600460003373ffffffffffffffffffffffffffffffffffffffff1673ffffffffffffffffffffffffffffffffffffffff16815260200190815260200160002060009054906101000a900460ff161515141515610c61576040517f08c379a00000000000000000000000000000000000000000000000000000000081526004018080602001828103825260258152602001807fd092d18b20d0bdd0b520d0b0d0b4d0bcd0b8d0bdd0b8d181d182d180d0b0d18281526020017fd0bed1802100000000000000000000000000000000000000000000000000000081525060400191505060405180910390fd5b6000600460008373ffffffffffffffffffffffffffffffffffffffff1673ffffffffffffffffffffffffffffffffffffffff16815260200190815260200160002060006101000a81548160ff02191690831515021790555050565b3373ffffffffffffffffffffffffffffffffffffffff16600382815481101515610ce257fe5b906000526020600020906007020160020160009054906101000a900473ffffffffffffffffffffffffffffffffffffffff1673ffffffffffffffffffffffffffffffffffffffff16141515610deb576040517f08c379a00000000000000000000000000000000000000000000000000000000081526004018080602001828103825260438152602001807fd092d18b20d0bdd0b520d18fd0b2d0bbd18fd0b5d182d0b5d181d18c20d0b2d081526020017fbbd0b0d0b4d0b5d0bbd18cd186d0b5d0bc20d0bad0b2d0b0d180d182d0b8d18081526020017fd18b21000000000000000000000000000000000000000000000000000000000081525060600191505060405180910390fd5b600381815481101515610dfa57fe5b906000526020600020906007020160020160009054906101000a900473ffffffffffffffffffffffffffffffffffffffff1673ffffffffffffffffffffffffffffffffffffffff166108fc600383815481101515610e5457fe5b9060005260206000209060070201600401549081150290604051600060405180830381858888f19350505050158015610e91573d6000803e3d6000fd5b506001600382815481101515610ea357fe5b906000526020600020906007020160060160006101000a81548160ff02191690831515021790555050565b60011515600460003373ffffffffffffffffffffffffffffffffffffffff1673ffffffffffffffffffffffffffffffffffffffff16815260200190815260200160002060009054906101000a900460ff161515141515610fbc576040517f08c379a00000000000000000000000000000000000000000000000000000000081526004018080602001828103825260258152602001807fd092d18b20d0bdd0b520d0b0d0b4d0bcd0b8d0bdd0b8d181d182d180d0b0d18281526020017fd0bed1802100000000000000000000000000000000000000000000000000000081525060400191505060405180910390fd5b600260806040519081016040528060028054905081526020018573ffffffffffffffffffffffffffffffffffffffff16815260200184815260200183815250908060018154018082558091505090600182039060005260206000209060040201600090919290919091506000820151816000015560208201518160010160006101000a81548173ffffffffffffffffffffffffffffffffffffffff021916908373ffffffffffffffffffffffffffffffffffffffff1602179055506040820151816002015560608201518160030155505050505050565b6060600560003373ffffffffffffffffffffffffffffffffffffffff1673ffffffffffffffffffffffffffffffffffffffff16815260200190815260200160002080548060200260200160405190810160405280929190818152602001828054801561111e57602002820191906000526020600020905b81548152602001906001019080831161110a575b5050505050905090565b6000151560038281548110151561113b57fe5b906000526020600020906007020160060160009054906101000a900460ff1615151415156111f7576040517f08c379a000000000000000000000000000000000000000000000000000000000815260040180806020018281038252602b8152602001807fd09fd180d0b5d0b4d0bbd0bed0b6d0b5d0bdd0b8d0b520d0bdd0b520d0b0d0ba81526020017fd182d0b8d0b2d0bdd0be2100000000000000000000000000000000000000000081525060400191505060405180910390fd5b3373ffffffffffffffffffffffffffffffffffffffff1660038281548110151561121d57fe5b906000526020600020906007020160030160009054906101000a900473ffffffffffffffffffffffffffffffffffffffff1673ffffffffffffffffffffffffffffffffffffffff161415156112da576040517f08c379a000000000000000000000000000000000000000000000000000000000815260040180806020018281038252601c8152602001807fd092d18b20d0bdd0b520d0b0d180d0b5d0bdd0b4d0b0d182d0bed1800000000081525060200191505060405180910390fd5b6003818154811015156112e957fe5b906000526020600020906007020160030160009054906101000a900473ffffffffffffffffffffffffffffffffffffffff1673ffffffffffffffffffffffffffffffffffffffff166108fc60038381548110151561134357fe5b9060005260206000209060070201600401549081150290604051600060405180830381858888f19350505050158015611380573d6000803e3d6000fd5b506000809054906101000a900473ffffffffffffffffffffffffffffffffffffffff166003828154811015156113b257fe5b906000526020600020906007020160030160006101000a81548173ffffffffffffffffffffffffffffffffffffffff021916908373ffffffffffffffffffffffffffffffffffffffff16021790555050565b6000151560038281548110151561141757fe5b906000526020600020906007020160060160009054906101000a900460ff1615151415156114d3576040517f08c379a000000000000000000000000000000000000000000000000000000000815260040180806020018281038252602b8152602001807fd09fd180d0b5d0b4d0bbd0bed0b6d0b5d0bdd0b8d0b520d0bdd0b520d0b0d0ba81526020017fd182d0b8d0b2d0bdd0be2100000000000000000000000000000000000000000081525060400191505060405180910390fd5b3373ffffffffffffffffffffffffffffffffffffffff166003828154811015156114f957fe5b906000526020600020906007020160020160009054906101000a900473ffffffffffffffffffffffffffffffffffffffff1673ffffffffffffffffffffffffffffffffffffffff161415156115dc576040517f08c379a00000000000000000000000000000000000000000000000000000000081526004018080602001828103825260278152602001807fd092d18b20d0bdd0b520d185d0bed0b7d18fd0b8d0bd20d0bad0b2d0b0d180d181526020017f82d0b8d180d18b0000000000000000000000000000000000000000000000000081525060400191505060405180910390fd5b6003818154811015156115eb57fe5b906000526020600020906007020160030160009054906101000a900473ffffffffffffffffffffffffffffffffffffffff1673ffffffffffffffffffffffffffffffffffffffff166108fc60038381548110151561164557fe5b9060005260206000209060070201600401549081150290604051600060405180830381858888f19350505050158015611682573d6000803e3d6000fd5b506000809054906101000a900473ffffffffffffffffffffffffffffffffffffffff166003828154811015156116b457fe5b906000526020600020906007020160030160006101000a81548173ffffffffffffffffffffffffffffffffffffffff021916908373ffffffffffffffffffffffffffffffffffffffff160217905550600160038281548110151561171457fe5b906000526020600020906007020160060160006101000a81548160ff02191690831515021790555050565b6000151560038281548110151561175257fe5b906000526020600020906007020160060160009054906101000a900460ff16151514151561180e576040517f08c379a000000000000000000000000000000000000000000000000000000000815260040180806020018281038252602b8152602001807fd09fd180d0b5d0b4d0bbd0bed0b6d0b5d0bdd0b8d0b520d0bdd0b520d0b0d0ba81526020017fd182d0b8d0b2d0bdd0be2100000000000000000000000000000000000000000081525060400191505060405180910390fd5b60038181548110151561181d57fe5b906000526020600020906007020160020160009054906101000a900473ffffffffffffffffffffffffffffffffffffffff1673ffffffffffffffffffffffffffffffffffffffff163373ffffffffffffffffffffffffffffffffffffffff161415151561193e576040517f08c379a000000000000000000000000000000000000000000000000000000000815260040180806020018281038252604c8152602001807fd092d18b20d0bdd0b520d0bcd0bed0b6d0b5d182d0b520d0b2d0b7d18fd182d181526020017f8c20d181d0b2d0bed18e20d0bad0b2d0b0d180d182d0b8d180d18320d0b220d081526020017fb0d180d0b5d0bdd0b4d18321000000000000000000000000000000000000000081525060600191505060405180910390fd5b60038181548110151561194d57fe5b90600052602060002090600702016004015434141515611a21576040517f08c379a00000000000000000000000000000000000000000000000000000000081526004018080602001828103825260538152602001807fd09dd0b5d0b4d0bed181d182d0b0d182d0bed187d0bdd0bed18020d181d180d081526020017fb5d0b4d181d182d0b220d0b8d0bbd0b820d0bdd0b5d0bad0bed180d0b5d0bad181526020017f82d0bdd0b0d18f20d181d183d0bcd0bcd0b0210000000000000000000000000081525060600191505060405180910390fd5b33600382815481101515611a3157fe5b906000526020600020906007020160030160006101000a81548173ffffffffffffffffffffffffffffffffffffffff021916908373ffffffffffffffffffffffffffffffffffffffff16021790555060011515600760003373ffffffffffffffffffffffffffffffffffffffff1673ffffffffffffffffffffffffffffffffffffffff16815260200190815260200160002060009054906101000a9050505050565b80600460008473ffffffffffffffffffffffffffffffffffffffff1673ffffffffffffffffffffffffffffffffffffffff16815260200190815260200160002060006101000a81548160ff021916908315150217905550505056fea165627a7a72305820ef4dbd98d7a91c2e0e88c366d87631e2d7ac4b6d5fe3ba208e86bcf9e2cf1ea00029",
  "source": "pragma solidity 0.5.1;\r\n\r\ncontract Arenda {\r\n\r\n    struct User{ // \r\n        uint id;\r\n        address user_address;\r\n    }\r\n\r\n    struct Estate{ // \r\n        uint estate_id;\r\n        address owner;\r\n        uint square;\r\n        uint use_age;\r\n    }\r\n\r\n    struct Arend{ // \r\n        uint estate_id_;\r\n        uint arend_id;\r\n        address payable owner_address;\r\n        address payable arendator;\r\n        uint sale;\r\n        uint time;\r\n        bool finished;\r\n    }\r\n\r\n    address payable zero = 0x0000000000000000000000000000000000000000;\r\n\r\n    User[] users; // \r\n    Estate[] estatets; // \r\n    Arend[] arends;// \r\n\r\n    mapping(address=>bool) Role;\r\n    mapping(address=>uint[]) Estates_id;\r\n    mapping(address=>uint) address_uint;\r\n    mapping(address=>bool) Rent_take;\r\n    mapping(uint=>bool) Rent_sale;\r\n\r\n    constructor () public{\r\n        Role[0x7506Ed6E94ccEe459516796ba9238e451fEe4DA0]= false;\r\n        Role[0xE2A7D77fCEf93B972C80Ee062BC9aC2D73662800] = true;\r\n        Role[0x310721B3d4693D2314f10A1F86F9046b59018151]=true;\r\n        Role[0xE2A7D77fCEf93B972C80Ee062BC9aC2D73662800]=true;\r\n        Role[0x5CCE5eFf16313E8A341c99390043E82F96211541]=false;\r\n        Role[0x60572432E2D40e2a6958Cfe7A70606EFf1B4EC17]=false;\r\n        Role[0x56765eD20D8ED10C4435F816603FA5CEbd7008A5]=false;\r\n        Role[0xF127a5D9F21F3DED2efe63Ed9c6EBE2C0E3f8771]=false;\r\n\r\n        estatets.push(Estate(estatets.length, 0x5CCE5eFf16313E8A341c99390043E82F96211541, 70, 5));\r\n        Estates_id[0x5CCE5eFf16313E8A341c99390043E82F96211541].push(estatets.length-1);\r\n        estatets.push(Estate(estatets.length, 0x60572432E2D40e2a6958Cfe7A70606EFf1B4EC17, 60, 8));\r\n        Estates_id[0x60572432E2D40e2a6958Cfe7A70606EFf1B4EC17].push(estatets.length-1);\r\n        estatets.push(Estate(estatets.length, 0x60572432E2D40e2a6958Cfe7A70606EFf1B4EC17, 230, 3));\r\n        Estates_id[0x60572432E2D40e2a6958Cfe7A70606EFf1B4EC17].push(estatets.length-1);\r\n\r\n\r\n        users.push(User(users.length, 0x7506Ed6E94ccEe459516796ba9238e451fEe4DA0));//     \r\n        users.push(User(users.length, 0xE2A7D77fCEf93B972C80Ee062BC9aC2D73662800));\r\n        users.push(User(users.length, 0x310721B3d4693D2314f10A1F86F9046b59018151));\r\n        users.push(User(users.length, 0xE2A7D77fCEf93B972C80Ee062BC9aC2D73662800));\r\n        users.push(User(users.length, 0x5CCE5eFf16313E8A341c99390043E82F96211541));\r\n        users.push(User(users.length, 0x60572432E2D40e2a6958Cfe7A70606EFf1B4EC17));\r\n        users.push(User(users.length, 0x56765eD20D8ED10C4435F816603FA5CEbd7008A5));\r\n        users.push(User(users.length, 0xF127a5D9F21F3DED2efe63Ed9c6EBE2C0E3f8771));\r\n\r\n        address_uint[0x7506Ed6E94ccEe459516796ba9238e451fEe4DA0]=users.length;\r\n        address_uint[0xE2A7D77fCEf93B972C80Ee062BC9aC2D73662800]=users.length;\r\n        address_uint[0x310721B3d4693D2314f10A1F86F9046b59018151]=users.length;\r\n        address_uint[0xE2A7D77fCEf93B972C80Ee062BC9aC2D73662800]=users.length;\r\n        address_uint[0x5CCE5eFf16313E8A341c99390043E82F96211541]=users.length;\r\n        address_uint[0x60572432E2D40e2a6958Cfe7A70606EFf1B4EC17]=users.length;\r\n        address_uint[0x56765eD20D8ED10C4435F816603FA5CEbd7008A5]=users.length;\r\n        address_uint[0xF127a5D9F21F3DED2efe63Ed9c6EBE2C0E3f8771]=users.length;\r\n    }\r\n\r\n    // \r\n    function get_role() public view returns(bool){\r\n        return(Role[msg.sender]);\r\n    }\r\n\r\n    // \r\n    function cmena_role(address adres, bool role) public {\r\n        Role[adres] = role;\r\n    }\r\n\r\n    // \r\n    function delete_admin(address adres) public{\r\n        require(Role[msg.sender]==true, \"  !\");\r\n        Role[adres] = false;\r\n    }\r\n\r\n    //      id\r\n    function get_arend_number(uint id_arend) public view returns(uint, uint, address, address,uint, uint, bool){\r\n        return(arends[id_arend].estate_id_,\r\n        arends[id_arend].arend_id,\r\n        arends[id_arend].owner_address,\r\n        arends[id_arend].arendator,\r\n        arends[id_arend].sale,\r\n        arends[id_arend].time,\r\n        arends[id_arend].finished);\r\n    }\r\n\r\n\r\n    //     id\r\n    function get_estates_number(uint estate_id) public view returns(uint, address, uint, uint){\r\n        return(estatets[estate_id].estate_id,\r\n        estatets[estate_id].owner,\r\n        estatets[estate_id].square,\r\n        estatets[estate_id].use_age);\r\n    }\r\n\r\n    //  \r\n    function get_estates() public view returns(uint){\r\n        return(estatets.length);\r\n    }\r\n\r\n    //  \r\n    function get_arends() public view returns(uint){\r\n        return(arends.length);\r\n    }\r\n\r\n    // id    \r\n    function get_estates_address() public view returns(uint [] memory){\r\n        return(Estates_id[msg.sender]);\r\n    }\r\n\r\n\r\n    // \r\n    function create_estate(address owner, uint square, uint use_age) public {\r\n        require(Role[msg.sender]==true, \"  !\");\r\n        estatets.push(Estate(estatets.length, owner, square, use_age));\r\n    }\r\n\r\n\r\n    // \r\n    function create_arend(uint estate_id, uint sale, uint time) public {\r\n        require(Rent_sale[estate_id]==false, \"   !\");\r\n        require(msg.sender==estatets[estate_id].owner, \"  !\");\r\n        arends.push(Arend(estate_id, arends.length, msg.sender, zero, sale*1000000000000000000, time, false));\r\n        Rent_sale[estate_id] = true;\r\n    }\r\n\r\n\r\n    //   \r\n    function take_arend(uint id_arend) public payable {\r\n        require(arends[id_arend].finished == false, \"  !\");\r\n        require(msg.sender!=arends[id_arend].owner_address, \"       !\");\r\n        require(msg.value==arends[id_arend].sale, \"    !\");\r\n        arends[id_arend].arendator = msg.sender;\r\n        Rent_take[msg.sender]==true;\r\n    }\r\n\r\n    //  \r\n    function arend_accept(uint id_arend) public payable{\r\n        require(arends[id_arend].owner_address==msg.sender, \"    !\");\r\n        arends[id_arend].owner_address.transfer(arends[id_arend].sale);\r\n        arends[id_arend].finished = true;\r\n    }\r\n\r\n    //  \r\n    function arend_cancel_owner(uint arend_id) public{\r\n        require(arends[arend_id].finished == false, \"  !\");\r\n        require(arends[arend_id].owner_address == msg.sender, \"   \");\r\n        arends[arend_id].arendator.transfer(arends[arend_id].sale);\r\n        arends[arend_id].arendator = zero;\r\n        arends[arend_id].finished = true;\r\n\r\n    }\r\n\r\n\r\n    //     \r\n    function arend_cancel_arendator(uint arend_id) public {\r\n        require(arends[arend_id].finished == false, \"  !\");\r\n        require(arends[arend_id].arendator == msg.sender, \"  \");\r\n        arends[arend_id].arendator.transfer(arends[arend_id].sale);\r\n        arends[arend_id].arendator = zero;\r\n    }\r\n\r\n}\r\n",
  "sourcePath": "C:/Users/WSR2020/Desktop/project/src/Geth/Project/contracts/FreeRealEstate.sol",
  "compiler": {
    "name": "solc",
    "version": "0.5.1+commit.c8a2cb62.Emscripten.clang"
  },
  "schemaVersion": "3.3.2",
  "updatedAt": "2020-12-17T09:02:00.751Z",
  "devdoc": {
    "methods": {}
  },
  "userdoc": {
    "methods": {}
  }
}